:1000000038C0FECFFDCFFCCFFBCFFACFF9CFF8CF72
:10001000F7CFF6CFF5CFF4CFF3CFF2CFF1CFF0CFCC
:10002000EFCFEECF5FC0ECCF84C0EACFE9CFE8CF0F
:10003000E7CFE6CF50414745205455524E45520038
:1000400020204155544F4D41544943200050524FB8
:1000500043455353205354415254454400000C002F
:10006000800134000D008C014000100099014D000A
:100070000000F894EE27EFBBE5BFF8E1A895A4B720
:10008000A77FA4BFF0936000E09360008DE0A2E042
:10009000BB27ED938A95E9F780E092E0A0E0B1E01C
:1000A000ED930197E9F7EEE5F0E0859195910097E2
:1000B00061F0A591B59105901590BF01F0010590F3
:1000C0000D920197E1F7FB01F0CFE0E0EEBBE0E03D
:1000D000EABDE0E0EBBDEFEFEDBFE2E0EEBFC0E870
:1000E000D1E060C0AA93BA93EA93EFB7EA93BDD187
:1000F0000091C0001091C600E02FEC7109F012C011
:10010000A72DB0E0A755BE4F1C937394E8E0E71508
:1001100009F001C077249394E8E0E91509F002C0E2
:100120009924F09AAAD1E991EFBFE991B991A991E7
:100130001895EA93FA93EFB7EA93CC2009F40CC030
:10014000CA94EB2D45D1E081E093C600B394E8E07A
:10015000EB1509F001C0BB24E991EFBFF991E991DA
:100160001895E8E0EC1509F001C0FBCFF894CC201D
:1001700009F006C0E091C000E07209F401C00CC0B3
:10018000EA2D26D1A881A083A394E8E0EA1509F01E
:1001900001C0AA24C39403C0E881E093C600789408
:1001A00021960895E0E8E0936100E0E0E0936100CB
:1001B000E5B9E7E0E4B9E0E0E8B9EFE0E7B9ECE0A1
:1001C000EBB9E0EFEAB9E0E0E4BDE5BDE6BDE7BDCF
:1001D000E8BDE0938000E0938100E0938500E09328
:1001E0008400E0938700E0938600E0938900E09329
:1001F0008800E0938B00E0938A00E093B600E093E0
:10020000B000E093B100E093B200E093B300E0935C
:10021000B400E0936900EDBBE0936800E0936E00EA
:10022000E0936F00E0937000E093C000E8EDE0938E
:10023000C100E6E0E093C200E0E0E093C500E9E140
:10024000E093C400E0E8E0BFE0E0E0937B00789456
:1002500055D0C2D0ECE8F1E0C3D0E0ECC4D0E0E887
:10026000F1E0BED0C2D04A9904C0E1E04E2E552440
:1002700003C04424E1E05E2EE1E0E61509F02AC067
:1002800022243324EFE0F0E02E163F0608F021C0D0
:10029000E1E0E41509F003C0E1E4EA9362DFE1E0A4
:1002A000E51509F003C0E2E4EA935BDF409A9DD0D4
:1002B000419A42989FD04098E8EEF3E0A3D041984D
:1002C000429A98D0E0E1F7E29DD0F10131961F010A
:1002D000D9CF96CE4B990BC0E8ECF0E093D04B9978
:1002E00006C0E1E06E2E78D0E9E9F1E079D0C4CF24
:1002F000FFCFE1E078D0E6E076D00895EFE0F0E0DF
:1003000081D0E3E070D0E5E0F0E07CD0E3E06BD0BA
:100310007CD0E3E068D079D0E2E065D076D0E8E246
:1003200062D0E4E6F0E06ED0E0E65DD0E4E6F0E036
:1003300069D0ECE058D06DD0E6E055D06AD0E0E965
:1003400052D067D0E1E04FD0E2E0F0E05BD008951A
:100350008CD000E010E0EA81EF700E2FEA81E29588
:10036000EF701E2F1F700F701295107F0295007F87
:1003700084EF91E00197F1F728984ED07BD0239637
:10038000089571D03C8320E000E010E0ED81E07F33
:100390001E2FED81E295E07F0E2F88E592E0019718
:1003A000F1F7289A39D064D026960895A881B981AA
:1003B000EC91E03009F40AC0EA93E1E0EA93E1DF6E
:1003C000A881B981ED91A883B983F0CF22960895D1
:1003D000F0E0EF54FE4F08958CDFE0E8EA93B8CFE9
:1003E000FA93EA93E3CFEA93B3CFE0EDF7E0FA9321
:1003F000EA932DC0EAE8F2E0FA93EA9328D0419814
:1004000042980895FA93EA9322C085ED8A95F1F710
:100410000895E1E0F0E0F6CF29982A9AEBB1EF7069
:10042000EBB9EBB1E12BEBB987E08A95F1F72A98AC
:1004300087E08A95F1F72A9AEBB1EF70EBB9EBB14F
:10044000E02BEBB987E08A95F1F72A980895E991B6
:10045000F991309639F088EE93E00197F1F7A8957D
:100460003197C9F708953A932A931A930A930895F6
:100470003B812A8119810881089509911991089574
:00000001FF
